:020000040800F2
:1000000000500020CD150008A9150008AB15000808
:10001000AD150008AF150008B1150008000000007C
:10002000000000000000000000000000B315000800
:10003000B515000800000000B7150008B915000844
:1000400015160008151600081516000815160008E4
:1000500015160008151600081516000815160008D4
:10006000151600081516000815160008BD1500081D
:1000700015160008151600081516000815160008B4
:1000800015160008151600081516000815160008A4
:100090001516000815160008151600081516000894
:1000A0001516000815160008151600081516000884
:1000B0001516000815160008151600081516000874
:1000C0001516000815160008151600081516000864
:1000D0001516000815160008151600081516000854
:1000E0001516000815160008151600080000000077
:1000F0000000000000000000000000000000000000
:0C01000000000000000000005FF808F1A3
:10010C0010B5054C237833B9044B13B10448AFF345
:10011C0000800123237010BD0C00002000000000A3
:10012C007016000808B5034B1BB103490348AFF325
:10013C00008008BD000000001000002070160008B0
:10014C0038B50E4B054618784FF47A73B3FBF0F3C1
:10015C000B4A1068B0FBF3F000F0B6FA044658B93D
:10016C000F2D09D8024629464FF0FF3000F06AFAED
:10017C00044B20461D6038BD012038BD0000002016
:10018C000800002004000020074A08B5136803206B
:10019C0043F01003136000F043FA0020FFF7D0FF88
:1001AC0001F056F9002008BD00200240034A044B20
:1001BC0011681B780B441360704700BF28000020A7
:1001CC0000000020014B1868704700BF2800002079
:1001DC007047436A10B59A6A12F0500F1BD19A6A95
:1001EC0042F400729A621A68926802F46022B2F5C4
:1001FC00602F0CD11A7B52B99A6A22F480729A62DF
:10020C009A6AD2045EBF9A6A42F001029A62184658
:10021C00FFF7DEFF10BD1B6ABDE810401B6B1847D3
:10022C00704708B5406AFFF7FBFF08BD7047406A8E
:10023C0008B5836A43F040038362C36A43F0040346
:10024C00C362FFF7F3FF08BD002373B5019390F869
:10025C002430012B74D001234D6880F82430062DF6
:10026C0002684FEA85030C6825D82B441F25566B72
:10027C00053B9D4026EA050504FA03F32B43536323
:10028C00092C4FEA44038D682FD907262344D168E3
:10029C001E3B9E4021EA060105FA03F30B43D36093
:1002AC00A4F11003012B2BD90023002280F8242069
:1002BC00184602B070BD0C2D0BD82B441F25166BA5
:1002CC00233B9D4026EA050504FA03F32B431363F5
:1002DC00D6E72B441F25D66A413B9D4026EA0505EF
:1002EC0004FA03F32B43D362CAE7072611692344AC
:1002FC009E4021EA060105FA03F30B431361CFE795
:10030C00104B9A4216D193681B02CDD49368102CD3
:10031C0043F400039360C7D10B4B0C4A1B68B3FB2F
:10032C00F2F20A2353430193019B002BBCD0019B97
:10033C00013BF8E7836A43F0200383620123B4E7AF
:10034C000223B5E7002401400800002040420F00C2
:10035C00002373B50193036804469A68D20702D54B
:10036C00002002B070BD9A6842F001029A60124BF4
:10037C00124A1B68B3FBF2F30193019BC3B9FFF75D
:10038C0021FF064623689D6815F00105E8D1FFF7AB
:10039C0019FF801B0228F5D9A36A84F8245043F076
:1003AC001003A362E36A012043F00103E362D8E780
:1003BC00019B013BE0E700BF0800002040420F001A
:1003CC002DE9D8419046404B026804469A420F46AC
:1003DC0002D03E498A4203D15B6813F4702F6ED170
:1003EC0094F82430012B6CD00123204684F824305F
:1003FC00FFF7AEFF064600285DD1A06A216820F405
:10040C007060324B20F0010040F480709942A06281
:10041C0004D12D4A536813F4702F3ED1A36A23F4F0
:10042C008013A3624B685A0505D5A36A23F4405385
:10043C0043F48053A362A36A206A13F4805318BF59
:10044C00E36A3A4618BF23F00603E362002384F8FC
:10045C0024301F4B4C3183621E4BC3621E4B036313
:10046C006FF0020341F84C3C51F8443C43F4807368
:10047C0041F8443C434600F06DF923689A6802F455
:10048C006022B2F5602F9A680CBF42F4A00242F4CD
:10049C0080129A603046BDE8D881A36A43F4801379
:1004AC00A36253685B0541BFA06A20F4405040F43E
:1004BC008050A062BFE7002384F82430EAE70126CD
:1004CC00E8E70226E6E700BF0024014000280140CF
:1004DC00DF0100082F0200083B02000838B5036852
:1004EC0004469A68D20701D4002038BD9A6822F0DD
:1004FC0001029A60FFF766FE054623689B68DB07DE
:10050C00F2D5FFF75FFE401B0228F6D9A36A012043
:10051C0043F01003A362E36A43F00103E36238BDC6
:10052C0070B50446002871D0836A23B9C36280F881
:10053C00243000F0AFFF2046FFF7D0FFA36A13F082
:10054C00100FA36A64D1002862D1E16923F48853A7
:10055C00626823F0020343F002030A43A168A3621A
:10056C00237BB1F5807F42EA430238D0012914BFC6
:10057C0006464FF48076257D012D07D1002B30D116
:10058C00A369013B46EA433545F400662368B1F59F
:10059C00807F5D6825F4694545EA06055D609E68C7
:1005AC001D4D05EA060545EA02059D6001D00129AD
:1005BC0020D1216901390905DD6A25F4700529432B
:1005CC00D9629968154B0B409A4215D10023E3620E
:1005DC00A36A23F0030343F00103A36270BD0E462C
:1005EC00C9E7A36A43F02003A362E36A43F0010363
:1005FC00E362CBE70021DFE7A36A23F0120343F0A9
:10060C001003A362E36A43F00103E362012070BDAF
:10061C0043F01003A362F9E7FDF7E1FFFE0E1FFFA5
:10062C00074A0002D36800F4E06023F4E0631B0483
:10063C001B0C43F0BF6343F400330343D360704798
:10064C0000ED00E0174B30B5DC68C4F30224C4F1B4
:10065C000703251D042B28BF0423062D4FF001058D
:10066C0098BF002405FA03F303F1FF3388BF033C62
:10067C001940A14005FA04F4013C2240002842EA4A
:10068C0001024FEA0212A9BF00F16040064BD2B240
:10069C0000F56140BBBF00F00F00D2B280F8002320
:1006AC001A5430BD00ED00E014ED00E0002808DB2A
:1006BC000123420900F01F0003FA00F0014B43F83C
:1006CC002200704700E100E00138B0F1807F0AD2CF
:1006DC00F021064B064A586082F8231000200722AE
:1006EC0098601A6070470120704700BF10E000E06E
:1006FC0000ED00E010B530B314220168134B846890
:10070C000B44B3FBF2F39B000364114B0A68C36305
:10071C00436822F47F522343C46822F030022343FF
:10072C00046923434469234384692343C4692343F1
:10073C0013430B600122002380F82120836380F88F
:10074C002030184610BD012010BD00BFF8FFFDBFC2
:10075C0000000240F0B590F82040012C35D0012467
:10076C0090F8215080F82040A5424FF000064FF041
:10077C00020428D180F82140046886632668076C3F
:10078C0026F001062660C66BBD4075606360436849
:10079C000568102BC36A0BBFA260A160E160E26028
:1007AC004BB1236843F00E0323602B68002043F009
:1007BC0001032B60F0BD236823F00403236023683E
:1007CC0043F00A03F0E780F820600220F0BD00003F
:1007DC0070B40425C66B026C3468036895402542DE
:1007EC00196832D04D0730D51A6896065EBF1A6864
:1007FC0022F004021A603E4A934219D014329342FA
:10080C0018D01432934217D01432934217D01432AA
:10081C00934217D0143293420CBF4FF480034FF025
:10082C008063344A5360C36A002B5ED070BC184797
:10083C000423F6E74023F4E74FF48063F1E74FF429
:10084C008043EEE74FF48023EBE7022595402542E9
:10085C0035D08D0733D51A68940606D41A6822F061
:10086C000A021A60012280F82120214A934219D0F1
:10087C001432934218D01432934217D0143293424C
:10088C0017D01432934217D0143293420CBF4FF44A
:10089C0000134FF00073174A5360002380F8203088
:1008AC00836AC1E70223F6E72023F4E74FF40073D1
:1008BC00F1E74FF40053EEE74FF40033EBE7082574
:1008CC009540254211D009070FD5196821F00E016A
:1008DC001960012303FA02F27260836380F82130FD
:1008EC00002380F82030036B9EE770BC704700BF7C
:1008FC0008000240000002402DE9F74F0024264674
:10090C00664BDFF8A8E1DFF8A8C10A6832FA06F5F1
:10091C0002D103B0BDE8F08F4FF0010808FA06F8D9
:10092C0002EA080290457FD14D68122D00F0AA8092
:10093C0000F28380022D00F0A28077D8002D00F009
:10094C008980012D00F099804FF00F09FF2A93BF89
:10095C00824606F18045083DD0F800B092BFB50044
:10096C00D0F804B0AD0009FA05F82BEA080804FA2F
:10097C0005F588BF00F1040A48EA0505CAF80050DD
:10098C00D1F804A01AF0805F4ED0454D444FAD69AC
:10099C0026F0030845F00105BD61BD6908F18048EA
:1009AC0005F00105019508F5803806F0030B019D53
:1009BC004FEA8B0BD8F8085009FA0BF925EA09090C
:1009CC00384DA84263D005F58065A84261D005F585
:1009DC008065A8425FD005F58065A8420CBF032551
:1009EC00042505FA0BF545EA0905C8F808501D68F9
:1009FC001AF4803F14BF154395431D605D681AF4CB
:100A0C00003F14BF154395435D609D681AF4801F29
:100A1C0014BF154395439D60DD681AF4001F14BF85
:100A2C002A4325EA0202DA6001366EE7032D22D052
:100A3C00112D89D1CC68043486E71B4FBD4209D0F7
:100A4C0012D8DFF870904D4504D009F580394D452A
:100A5C007FF47AAF8C68C4B1012C0CBFC0F8108045
:100A6C00C0F8148008246FE77545F3D06545F1D0C4
:100A7C00DFF84490EBE7002466E7CC6864E7CC68C9
:100A8C00083461E7CC680C345EE704245CE700258D
:100A9C00A7E70125A5E70225A3E700BF0004014055
:100AAC00001002400008014000002110000031102D
:100ABC00000032100000111000002210836819424F
:100ACC0014BF0120002070470AB10161704709046E
:100ADC00FBE700002DE9F341054608B901203CE095
:100AEC000368DB0710D42B689F075DD42B681907AC
:100AFC0000F194802B685A0700F1BE80E869002849
:100B0C0040F02C81002028E08F4C636803F00C032C
:100B1C00042B07D0636803F00C03082B09D163681E
:100B2C00DE0306D523689C03DDD56B68002BDAD178
:100B3C00D4E76B68B3F5803F12D1236843F480335C
:100B4C002360FFF73FFB064623689803CBD4FFF7DF
:100B5C0039FB801B6428F7D9032002B0BDE8F08173
:100B6C009BB9236823F480332360236823F4802308
:100B7C002360FFF727FB064623689903B3D5FFF7DD
:100B8C0021FB801B6428F7D9E6E7B3F5A02F236877
:100B9C0003D143F480232360CFE723F48033236015
:100BAC00236823F48023CBE7674C636813F00C0FA6
:100BBC0007D0636803F00C03082B10D16368DA03C9
:100BCC000DD423689B0702D52B69012B86D1236892
:100BDC006A6923F0F80343EAC203236086E72A69B3
:100BEC005A4B6AB101221A60FFF7ECFA06462368E9
:100BFC009F07ECD4FFF7E6FA801B0228F7D9ABE786
:100C0C001A60FFF7DFFA0646236898077FF56EAF88
:100C1C00FFF7D8FA801B0228F6D99DE7AA694A4C3F
:100C2C004B4BDAB101221A60FFF7CCFA0646636A25
:100C3C009B070DD54FF4FA52464B1B68B3FBF2F3EE
:100C4C00019300BF019B5A1E0192002BF9D151E771
:100C5C00FFF7B8FA801B0228E9D97DE71A60FFF785
:100C6C00B1FA0646636A9F077FF544AFFFF7AAFA0D
:100C7C00801B0228F6D96FE7334CE369D80024D4E3
:100C8C000127E36943F08053E361E36903F0805388
:100C9C000093009B304E3368D90518D5EB68012BB7
:100CAC0026D1236A43F001032362FFF78BFA41F24A
:100CBC0088368046236A9B073FD5002F3FF41EAF32
:100CCC00E36923F08053E36118E70027E2E7336818
:100CDC0043F480733360FFF775FA80463368DA05A6
:100CEC00DCD4FFF76FFAA0EB08006428F6D933E7E1
:100CFC00ABB9236A41F2883823F001032362236ADB
:100D0C0023F004032362FFF75DFA0646236A980773
:100D1C00D3D5FFF757FA801B4045F7D91CE7052BB5
:100D2C00236A03D143F004032362BAE723F00103DF
:100D3C002362236A23F00403B6E7FFF743FAA0EB20
:100D4C000800B042B6D907E700100240000042424A
:100D5C008004424208000020007000402A4B5A6870
:100D6C001C4602F00C02082A3DD00023274E022814
:100D7C0033602BD1FFF726FA0746236899011FD45D
:100D8C002B6AB3F5803F05D16268A96822F4003262
:100D9C000A436260696A62680B4322F4741213435B
:100DAC00636001233360FFF70DFA054623689A014F
:100DBC003FF5A8AEFFF706FA401B0228F6D9CBE6A2
:100DCC00FFF700FAC01B0228D7D9C5E6FFF7FAF9DE
:100DDC00054623689B017FF595AEFFF7F3F9401BA1
:100DEC000228F6D9B8E601283FF4B7AE58682B6A4A
:100DFC0000F480329A427FF471AE6B6A00F470108A
:100E0C00C01A18BF0120A8E6001002406000424240
:100E1C0030B5194B87B002AC03F1100522461868A7
:100E2C005968083303C2AB421446F7D101238DF83D
:100E3C000430022311498DF805304B6803F00C0285
:100E4C00082A17D1C3F3834206A80244DB0312F825
:100E5C00102C0CD54B680A48C3F34043504306AAE8
:100E6C00134413F8143CB0FBF3F007B030BD054845
:100E7C005043FAE70248F8E78816000800100240D1
:100E8C0000127A0000093D002DE9F0410D460446A0
:100E9C0010B90120BDE8F081454A136803F007033F
:100EAC008B4229D321688E0731D4CA0744D4404AD7
:100EBC00136803F007039D4267D322683D4D12F07F
:100ECC00040F6ED1130706D56B68226923F46053A7
:100EDC0043EAC2036B60FFF79BFF6B68364AC3F3B0
:100EEC000313D35CD840354B1860354B1868FFF7AB
:100EFC0027F90020BDE8F081136823F007030B43AA
:100F0C001360136803F007039942C2D1CAE7294B57
:100F1C0011F0040F1EBF5A6842F4E0625A600807D1
:100F2C0042BF5A6842F460525A605A68A06822F074
:100F3C00F00202435A60B8E762681E4E012A336819
:100F4C001BD113F4003FA4D0736841F2883823F00E
:100F5C00030313437360FFF735F907467368626840
:100F6C0003F00C03B3EB820FA1D0FFF72BF9C01BDE
:100F7C004045F3D90320BDE8F081022A02D113F0D9
:100F8C00007FE0E713F0020FDDE7136823F007039F
:100F9C002B431360136803F007039D427FF479AF72
:100FAC008BE76B68E16823F4E0630B436B6089E7C4
:100FBC000020024000100240981600080800002093
:100FCC0004000020044B054A5B68C3F30223D35C86
:100FDC00034A1068D840704700100240A816000859
:100FEC0008000020044B054A5B68C3F3C223D35CA2
:100FFC00034A1068D840704700100240A816000839
:10100C000800002003682DE9F341D907054620D5D7
:10101C00354CE369DA0032D40127E36943F080539D
:10102C00E361E36903F080530193019B2F4E336816
:10103C00DB0526D5236A13F4407336D1236A6A681C
:10104C0023F44073134323621FB1E36923F08053ED
:10105C00E3612868830706D5234AA968536823F4FB
:10106C0040430B43536010F010001BD01E4AE9683C
:10107C005368002023F480030B43536012E00027D5
:10108C00D4E7336843F480733360FFF79BF88046F2
:10109C003368D805CED4FFF795F8A0EB0800642888
:1010AC00F6D9032002B0BDE8F0816A6802F4407200
:1010BC009342C3D001200E4A236A1060002023F40F
:1010CC00407110602162D907B8D5FFF77BF841F267
:1010DC0088380646236A9A07B0D4FFF773F8801B4A
:1010EC004045F7D9DDE700BF00100240007000401A
:1010FC004004424238B504460368C1681A6922F4B8
:10110C0040520A431A6182680069D96802436069D7
:10111C0021F4B05121F00C0102430A43DA605A6900
:10112C00A16922F440720A435A610E4A934215D1C6
:10113C00FFF758FF19235843636864229B00B0FBE8
:10114C00F3F0B0FBF2F102FB11031B013233B3FBE2
:10115C00F2F3256803EB0113AB6038BDFFF732FFE8
:10116C00E8E700BF0038014010B5044640B390F8E2
:10117C00393003F0FF021BB980F8382000F0D4F9A5
:10118C002423226884F83930D368204623F4005392
:10119C00D360FFF7AFFF236800201A6922F4904256
:1011AC001A615A6922F02A025A61DA6842F4005232
:1011BC00DA602023E06384F8393084F83A3010BDCB
:1011CC00012010BD022202490248FFF7F9B800BF06
:1011DC005C0000202C000020044B18880A2300EB34
:1011EC008000400080B2B0FBF3F070475C00002040
:1011FC0010B54FF480711148FFF760FC012801D144
:10120C00012010BD4FF400410D48FFF757FC4FF47F
:10121C00804104460A48FFF751FC8442F0D14FF458
:10122C0000510748FFF74AFC4FF48051044604482C
:10123C00FFF744FC201A18BF012010BD0008014024
:10124C00000C014008B500224FF480510148FFF713
:10125C003BFCFEE70008014008B5FFF7BDFFC728BF
:10126C008CBF012200224FF400710548FFF72CFCC3
:10127C00FFF7BEFF012801D1FFF7E4FF08BD00BF57
:10128C0000080140282210B594B00DEB020000219B
:10129C0000F0E0F9142200210DEB020000F0DAF965
:1012AC000021102201A800F0D5F94FF4803302245C
:1012BC0001220B9312934FF4E0130AA80A920E9298
:1012CC0013931194FFF706FC0F234FF480620593E0
:1012DC000023214605A80793089209930694FFF76B
:1012EC00D3FD4FF4404301A801940393FFF78AFE0A
:1012FC0014B010BD80B588B0FEF746FFFFF7C2FFF3
:10130C0010224B4D00210DEB020000F0A3F9AB694C
:10131C00002243F01003AB61AB694FF4F05103F0C2
:10132C0010030093009BAB69424843F02003AB6170
:10133C00AB69002403F020030193019BAB694FF4CC
:10134C00807943F00403AB61AB69012703F004031C
:10135C000293029BAB694FF0020843F00803AB61A8
:10136C00AB69354E03F008030393039BFFF7ACFB0B
:10137C004FF4704304A93148049305940694FFF785
:10138C00BBFA04A92B48CDF8109005940694FFF7EE
:10139C00B3FA4FF4F05304A9264804930597069426
:1013AC00CDF81C80FFF7A8FA254B304633604FF47C
:1013BC0060230494F36105940694C6F8089037737F
:1013CC0034757460C6F81080FFF7AAF8062304A9D8
:1013DC003046069304940597FEF736FF04A9304671
:1013EC000497CDF81480FEF72FFF4FF416531548D1
:1013FC00154A846080E80C000C23C46043610461CE
:10140C008461C461FFF7B0FE07226B6911463B4350
:10141C006B616B690B203B400493049BFFF712F943
:10142C000B20FFF743F9FFF7CDFEFFF715FFFCE7A5
:10143C0000100240000801402C000020000C01406C
:10144C0000240140A400002000440040704700002C
:10145C000E4B82B09A6942F001029A619A6902F0CD
:10146C0001020092009ADA6942F08052DA61DB697B
:10147C00074A03F080530193019B536823F0E06308
:10148C0043F08063536002B0704700BF001002400D
:10149C000000014030B5054687B01022002102A89B
:1014AC0000F0D8F82A681C4B9A4233D103F56C43F0
:1014BC009A691A4842F400729A619A6902A902F474
:1014CC0000720092009A9A69154C42F004029A61DB
:1014DC009B6903F004030193019B03230293039381
:1014EC00FFF70AFA8022E2604FF4807222614FF417
:1014FC0080620C4B626123602022002320466360D3
:10150C00A360A261E361FFF7F5F808B1FFF79EFF56
:10151C002C62656207B030BD002401400008014018
:10152C00600000200800024010B5044686B010226E
:10153C00002102A800F08EF82268164B9A4226D1A0
:10154C0003F5E633DA6902A942F40032DA61DA69AA
:10155C00114802F400320092009A9A6942F0040297
:10156C009A619B6903F004030193019B042302938A
:10157C000223039303230593FFF7BEF90823029379
:10158C00002302A9044803930493FFF7B5F906B0AE
:10159C0010BD00BF00440040000801407047FEE74A
:1015AC00FEE7FEE7FEE7704770477047FEF7FEBDAB
:1015BC000148FFF70DB900BF600000207047000024
:1015CC00002103E00B4B5B58435004310A480B4B92
:1015DC0042189A42F6D30A4A02E0002342F8043B2E
:1015EC00084B9A42F9D3FFF7E9FF00F00FF8FFF729
:1015FC0081FE7047B8160008000000200C00002087
:10160C000C000020E4000020FEE7000070B500256F
:10161C000C4E0D4CA41BA410A54209D100F022F8CD
:10162C0000250A4E0A4CA41BA410A54205D170BD7E
:10163C0056F8253098470135EEE756F8253098478F
:10164C000135F2E7B0160008B0160008B016000815
:10165C00B416000803460244934200D1704703F8C5
:10166C00011BF9E7F8B500BFF8BC08BC9E467047F3
:0C167C00F8B500BFF8BC08BC9E467047E3
:1016880002030405060708090A0B0C0D0E0F1010BB
:10169800000000000000000001020304060708091A
:0816A800000000000102030430
:0416B00031010008FC
:0416B4000D0100081C
:0C16B80001000000100000000024F400FD
:04000005080015CD0D
:00000001FF
